{
  "contractName": "SimpleStorage",
  "abi": [
    {
      "constant": true,
      "inputs": [],
      "name": "myVariable",
      "outputs": [
        {
          "name": "",
          "type": "uint256"
        }
      ],
      "payable": false,
      "stateMutability": "view",
      "type": "function"
    },
    {
      "constant": false,
      "inputs": [
        {
          "name": "x",
          "type": "uint256"
        }
      ],
      "name": "set",
      "outputs": [],
      "payable": false,
      "stateMutability": "nonpayable",
      "type": "function"
    },
    {
      "constant": false,
      "inputs": [
        {
          "name": "x",
          "type": "uint256"
        }
      ],
      "name": "setWithError",
      "outputs": [],
      "payable": false,
      "stateMutability": "nonpayable",
      "type": "function"
    },
    {
      "constant": true,
      "inputs": [],
      "name": "get",
      "outputs": [
        {
          "name": "",
          "type": "uint256"
        }
      ],
      "payable": false,
      "stateMutability": "view",
      "type": "function"
    }
  ],
  "bytecode": "0x6060604052341561000f57600080fd5b61015b8061001e6000396000f300606060405260043610610062576000357c0100000000000000000000000000000000000000000000000000000000900463ffffffff1680630913bab7146100675780634e59ff561461008a57806360fe47b1146100b35780636d4ce63c146100d6575b600080fd5b341561007257600080fd5b61008860048080359060200190919050506100ff565b005b341561009557600080fd5b61009d610116565b6040518082815260200191505060405180910390f35b34156100be57600080fd5b6100d4600480803590602001909190505061011c565b005b34156100e157600080fd5b6100e9610126565b6040518082815260200191505060405180910390f35b5b6001156101135780600081905550610100565b50565b60005481565b8060008190555050565b600080549050905600a165627a7a723058204d896c76e79ea110ca996f7b3c6c489da2542266cb94ded47a0dbff3c883dc880029",
  "source": "pragma solidity 0.4.19;\n\n\ncontract SimpleStorage {\n    uint public myVariable;\n\n    function set(uint x) public {\n        myVariable = x;\n    }\n\n    function setWithError(uint x) public {\n        while (true) {\n            myVariable = x;\n        }\n    }\n\n    function get() public constant returns (uint) {\n        return myVariable;\n    }\n}",
  "sourcePath": "C:\\Projects\\REM\\contracts\\SimpleStorage.sol",
  "compiler": {
    "name": "solc",
    "version": "0.4.19+commit.c4cbbb05.Emscripten.clang"
  },
  "schemaVersion": "2.0.0",
  "updatedAt": "2018-04-19T09:25:13.189Z"
}